:020000040800F2
:1000000000060020E1020008E3020008E302000805
:10001000E3020008E3020008E3020008E30200082C
:10002000E3020008E3020008E3020008AD2A00082A
:10003000E3020008E3020008E3020008E30200080C
:10004000E3020008E3020008E3020008E3020008FC
:10005000E3020008E30200085D420008894200084C
:10006000B5420008E14200080D430008DD10000819
:1000700005110008311100085D1100088911000800
:10008000B1110008DD110008E3020008E3020008D6
:10009000E3020008E3020008E30200083943000815
:1000A000E3020008E3020008E3020008E30200089C
:1000B000E3020008E3020008E3020008E30200088C
:1000C000E3020008E3020008E3020008E30200087C
:1000D000E3020008E3020008E3020008E30200086C
:1000E0009D430008E3020008E3020008E302000861
:1000F000E3020008E3020008E30200080912000816
:10010000E3020008E302000811440008E3020008CB
:10011000E3020008E3020008E3020008E30200082B
:10012000351200085D12000889120008B512000897
:10013000E1120008E3020008E3020008E3020008FD
:10014000E3020008E3020008E3020008E3020008FB
:10015000091300083513000861130008E3020008C2
:10016000E3020008E3020008E3020008E3020008DB
:10017000E302000875360008E3020008E302000805
:10018000E3020008E3020008E3020008E3020008BB
:10019000E3020008E3020008E3020008E3020008AB
:1001A000E3020008E3020008E3020008E30200089B
:1001B000E3020008E3020008E3020008E30200088B
:1001C000E3020008E3020008E3020008E30200087B
:1001D000E302000861360008E3020008E3020008B9
:1001E000E3020008E3020008E3020008E30200085B
:1001F000E3020008E3020008E3020008E30200084B
:10020000E3020008E3020008E3020008E30200083A
:10021000E3020008E3020008E3020008E30200082A
:10022000E3020008E3020008E3020008E30200081A
:10023000E3020008E3020008E3020008E30200080A
:10024000E3020008E3020008E3020008E3020008FA
:10025000E3020008E3020008E3020008E3020008EA
:10026000E3020008E3020008E3020008E3020008DA
:10027000E3020008E3020008E3020008E3020008CA
:10028000E3020008E3020008E3020008E3020008BA
:10029000E3020008E3020008E3020008E3020008AA
:1002A000E3020008E3020008E3020008E30200089A
:1002B000E3020008E3020008E3020008E30200088A
:1002C000E3020008E3020008E3020008E30200087A
:1002D000E3020008E3020008E3020008E30200086A
:1002E00002E000F000F8FEE772B6374880F30888B5
:1002F000364880F3098836483649086040F20000E5
:10030000CCF200004EF63471CEF200010860BFF36B
:100310004F8FBFF36F8F40F20000C0F2F0004EF637
:100320008851CEF200010860BFF34F8FBFF36F8F8B
:100330004FF00000E1EE100A4EF63C71CEF20001E3
:100340000860062080F31488BFF36F8F02F010FC62
:1003500003F040FD4FF055301F491B4A91423CBF0E
:1003600041F8040BFAE71D49184A91423CBF41F895
:10037000040BFAE71A491B4A1B4B9A423EBF51F83D
:10038000040B42F8040BF8E700201849184A914280
:100390003CBF41F8040BFAE702F028FC03F09CFD97
:1003A000144C154DAC4203DA54F8041B8847F9E7A6
:1003B00000F042F8114C124DAC4203DA54F8041B21
:1003C0008847F9E702F010BC000600200022002058
:1003D0000000000808ED00E00000002000060020FA
:1003E00028490008002200205C2200206022002012
:1003F00088440020E0020008E0020008E002000853
:10040000E00200082DE9F04F2DED108AC1F80CD064
:10041000D0F80CD0BDEC108ABDE8F08F002383F338
:1004200011882846A047002001F0FEFDFEE701F0FC
:1004300089FD00DFFEE7000038B500F01FFC00F08A
:100440009FFD02F0F3FA054602F026FB0446C0B910
:100450000E4B9D4218D001339D4241F2883512BFA8
:10046000044600250124002002F0EAFA0CB100F055
:1004700075F800F059FD284600F01EF900F06EF8FE
:10048000F9E700250124EEE70546ECE7010007B097
:1004900008B500F0C7FBA0F120035842584108BD41
:1004A00007B541F21203022101A8ADF8043000F0B3
:1004B000D5FB03B05DF804FB38B5302383F3118816
:1004C000174803680BB101F07BFE0023154A4FF477
:1004D0007A71134801F06AFE002383F31188124CED
:1004E000236813B12368013B2360636813B1636819
:1004F000013B63600D4D2B7833B963687BB90220F3
:1005000000F082FC322363602B78032B07D16368F1
:100510002BB9022000F078FC4FF47A73636038BD89
:1005200070230020B9040008642300206C230020FD
:10053000084B187003280CD8DFE800F00805020803
:10054000022000F059BC022000F04CBC024B0022FB
:100550005A6070476C23002064230020F8B5504B8C
:10056000504A1C461968013100F0998004339342C7
:10057000F8D162684C4B9A4240F291804B4B9B6899
:1005800003F1006303F500339A4280F08880002075
:1005900000F09AFB0220FFF7CBFF454B0021D3F878
:1005A000E820C3F8E810D3F81021C3F81011D3F8ED
:1005B0001021D3F8EC20C3F8EC10D3F81421C3F8C1
:1005C0001411D3F81421D3F8F020C3F8F010D3F8A5
:1005D0001821C3F81811D3F81821D3F8802042F05D
:1005E0000062C3F88020D3F8802022F00062C3F8B4
:1005F0008020D3F88020D3F8802042F00072C3F826
:100600008020D3F8802022F00072C3F88020D3F835
:10061000803072B64FF0E023C3F8084DD4E90004EF
:10062000BFF34F8FBFF36F8F224AC2F88410BFF31E
:100630004F8F536923F480335361BFF34F8FD2F848
:10064000803043F6E076C3F3C905C3F34E335B0154
:1006500003EA060C29464CEA81770139C2F8747224
:10066000F9D2203B13F1200FF2D1BFF34F8FBFF32C
:100670006F8FBFF34F8FBFF36F8F536923F4003336
:1006800053610023C2F85032BFF34F8FBFF36F8F17
:10069000302383F31188854680F308882047F8BD0E
:1006A0000000020820000208FFFF010800220020CD
:1006B0000044025800ED00E02DE9F04F95B0DFF85E
:1006C000E8B22022FF2101900CA8DBF8086000F0BE
:1006D000D5FBB04A1378A3B90121AF48117003606C
:1006E000302383F3118803680BB101F069FD002307
:1006F000AA4A4FF47A71A84801F058FD002383F309
:100700001188019B13B1A64B019A1A60A54A137870
:10071000032B03D000231370A14A53604FF000094C
:10072000019DCA464C46C846012000F065FB25B134
:100730009B4B1B68002B00F01C82002000F072FA1B
:100740000590059B002BF2DB012000F04BFB059B85
:10075000213B1F2BE8D801A252F823F0DD07000847
:10076000EF0700087D08000829070008290700088E
:100770002907000813090008E30A0008010A000815
:100780005F0A0008870A0008AD0A00082907000868
:10079000BF0A000829070008310B00086908000893
:1007A00029070008790B00085509000869080008A6
:1007B000290700085F0A0008290700082907000820
:1007C0002907000829070008290700082907000849
:1007D00029070008290700087D0800080220FFF704
:1007E00057FE002800F0B68000F094FB73E04FF451
:1007F0007A7000F017FA071EC0F2AC800220FFF7F3
:1008000047FE002800F0A680013F052F00F2DC81A2
:10081000DFE807F0030A0D1013310523042107A8B0
:10082000079300F01BFA17E004215F48F9E7042161
:100830005E48F6E704215E48F3E74FF01C084046A7
:1008400008F1040800F042FA0421079007A800F01C
:1008500005FAB8F12C0FF2D101234FF00008BB408C
:100860004AEA03035FFA83FA00F054FB9CBBFFF7EC
:1008700017FE2346A6E104214E48D2E7002C69D09A
:100880000AF00B030B2B64D10220FFF701FE044694
:1008900000285ED00120002700F016FA0220FFF7A2
:1008A00047FE1FFA87F9484600F01EFA0546C8B908
:1008B0003C4B01222E4602201A7000F093FADBF81E
:1008C0000830B3421ED80026364BA1461E70344B6A
:1008D0005E6000F01FFB0AF00B0301240B2B08BF26
:1008E0000025C4E7059948460137A1F1400251426D
:1008F000514100F009FA05460028D2D1A14641F243
:1009000012132EE0304600F0E1F90130F6D1043642
:10091000D5E7FCB10AF00B030B2B1AD10220FFF72D
:1009200007FE322000F07EF9071E12DB17F00303EA
:100930000FD1BA19DBF808108A420AD8B7F5807FC0
:1009400007D81D4A9F4213DCC820FFF7A1FD0446CB
:10095000A0BB0124019BB9F1000F08BF1D4641F265
:100960001233022107A8ADF81C3000F077F980E7B8
:100970004FF47A70CDE9023200F054F905900599F0
:100980000029E7DB0599039A029B02F8011B01335A
:10099000D8E700BF6023002070230020B9040008BE
:1009A000642300206C230020002200200422002069
:1009B000082200200C220020602200201F2E11D8C7
:1009C000C6F120020CAB26F003008149BA4218445C
:1009D00028BF3A46029200F031FA029AFF217C4881
:1009E00000F04CFABB10C7F38702794930460293F6
:1009F00000F04CFA002882D0029B06EB8306F3E657
:100A00000220FFF745FD0028A4D000F09BF9002844
:100A1000A0D000273B4612E01F2F1AD80C9A0132B3
:100A200017D027F0030250326A4452F8200C079086
:100A30000422184607A900F03BFB04370346DBF805
:100A40000820BA42E8D80793042107A800F006F965
:100A50000AE73846029300F039F9029BE7E70023E2
:100A6000642106A8069300F0F1F800287FF472AF25
:100A70000220FFF70DFD00283FF46CAF069800F050
:100A800057F90790E0E70023642106A8069300F0D9
:100A9000DDF800287FF45EAF0220FFF7F9FC0028A4
:100AA0003FF458AF069800F045F9EAE70220FFF757
:100AB000EFFC00283FF44EAF00F054F9E1E70220CC
:100AC000FFF7E6FC00283FF445AF07A9142000F02B
:100AD0004FF907460421069006A800F0BFF83946F2
:100AE000B3E7322000F09EF8071EFFF633AFBB07D6
:100AF0007FF430AF07EB0803DBF8082093423FF6A2
:100B000029AF0220FFF7C4FC00283FF423AF27F0F1
:100B100003074744B8453FF4A7AE404608F1040830
:100B200000F0D4F80421079007A800F097F8F1E747
:100B30004FF47A70FFF7ACFC00283FF40BAF00F0E5
:100B400001F900283FF4DBAE0C9B01330CD00822E6
:100B50000CA9002000F09AF900283FF4D0AE202222
:100B6000FF210CA800F08AF9FFF79AFC194801F060
:100B700061FA15B0BDE8F08F002C3FF4EBAE0AF03F
:100B80000B030B2B7FF4E6AE0023642107A8079329
:100B900000F05CF8074600287FF4DCAE0220FFF787
:100BA00077FC029000283FF4D5AEFFF779FC41F2C4
:100BB000883001F03FFA079800F0E0F93D4600F078
:100BC000A9F9029B1C46AFE54FF00008C2E600BF42
:100BD00060220020A08601000F4B70B51B780546EF
:100BE0000C460133DBB2012B10D80C484FF47A735A
:100BF0000168A2FB033222460E6A2946B0478442AE
:100C000004D1074B002201201A7070BD4FF4FA7016
:100C100001F010FA0020F8E71022002040290020FF
:100C2000B8230020002307B5024601210DF107007B
:100C30008DF80730FFF7D0FF20B19DF8070003B013
:100C40005DF804FB4FF0FF30F9E700000A4604218D
:100C500008B5FFF7C1FF013808BD000030B40546F4
:100C600004480A4603682946DC69034BA44630BCA5
:100C7000604700BF40290020A086010070B5104CDD
:100C80000026104D01F0E6FC20802868238883426E
:100C900008D901F0DBFC2B6806440133B6F5003FB0
:100CA0002B60F2D300252088013801F0CFFC238887
:100CB0000544013BB5F5802F2380F4D370BD00BF00
:100CC000B0230020B423002001F0A6BD00F1006095
:100CD00000F500300068704700F10060920000F5F8
:100CE000003001F015BD0000054B1A68054B1B884C
:100CF0009B1A834202D9104401F0A8BC002070471F
:100D0000B4230020B023002038B5084D04462868DD
:100D100029B128682044BDE8384001F0B1BC204426
:100D200001F09AFC0028F4D038BD00BFB4230020A5
:100D30000020704700F1FF5000F58F10D0F8000838
:100D400070470000064991F8243033B1002308228F
:100D5000086A81F82430FFF7BFBF0120704700BF49
:100D600088230020014B1868704700BF0010005C0A
:100D7000194B1A4A70B51D68431E0420C5F30B04B5
:100D80000B442D0C013808D19942084610D3052494
:100D9000134A013C15D1401A70BD1688A6420ED1E7
:100DA00052680846013A9842F1D212F9014F1CB933
:100DB0002C2200F8012BEAE700F8014BF3E7083298
:100DC000E0E71688AE4204D198423CBF967800F81E
:100DD000016B0432DDE700BF0010005C142200202C
:100DE000DC440008022803D1024B4FF400029A6150
:100DF000704700BF00040258022802D1014B802234
:100E00009A61704700040258022804D1024A5369CB
:100E100083F08003536170470004025870B50446A4
:100E20004FF47A7604B970BD412C254628BF412580
:100E300006FB05F0641B01F0FDF8F3E7002310B595
:100E4000934200D110BDCC5CC4540133F8E70000DC
:100E5000013810B510F9013F3BB191F900409C42B7
:100E600003D11AB10131013AF4E71AB191F9002026
:100E7000981A10BD1046FCE7FFF7FEBF0244034678
:100E8000934200D1704703F8011BF9E72DE9F843BD
:100E90001F4D14460746884695F8242022B9DFF8EE
:100EA00070906CB9012009E02B6A03EB8203834246
:100EB000F5D0FFF747FF0028F1D10020BDE8F88307
:100EC00095F824302BB92022FF2148462F62FFF7E6
:100ED000D5FF95F824004146C0F1080205EB8000DB
:100EE000A24228BF2246D6B29200FFF7A7FF95F88C
:100EF0002430A41B17441E449044E4B2F6B2082EDA
:100F000085F82460CDD1FFF71DFF0028C9D1D4E7B3
:100F100088230020024B1A78024B1A70704700BFDA
:100F2000B82300201022002038B5114D114C28465E
:100F300000F0AEFB2146284600F0D6FB24684FF4B3
:100F40007A70D4F89020D2F8043843F00203C2F843
:100F50000438FFF763FF0849204600F0D3FCD4F8BB
:100F60009020D2F8043823F00203C2F8043838BDC8
:100F700040290020A4460008AC4600087047000045
:100F80002DE9F04771B6464B01201D68454BB3F87B
:100F9000008000231A46194600F088FA0446802093
:100FA00001F0D6FC074670B36CB33F4EADB24FF0C4
:100FB000800A7369284643F0C0637361D6F8143120
:100FC00043F0C063C6F8143101F040FB05EB0802A2
:100FD00005FB00F34FF03D0C00FB02FE4FF4D06028
:100FE0009E4513D8204600F0A1FA384601F0E4FCF3
:100FF0002D4B5A6942F0C0625A61D3F8142142F075
:10100000C062C3F8142161B6BDE8F08731694A01B6
:101010002CD4D6F81011490128D4226803F10061BC
:1010200091602168CF602168C1F804A02168086040
:10103000D4F80090D9F8001041F00101C9F800106F
:10104000D4F80090D9F8001021F01E01C9F8001062
:10105000D4F80090D9F80010CA07FBD494F80C908B
:10106000803362680CFA09F11160B9E70F4B9A6A94
:1010700042F400729A629A6A42F400429A6261B63D
:101080000026012001F0C8FB464503D3002001F0F3
:10109000C3FBA7E7A819013601F0F2FAF4E700BF95
:1010A000B4230020B02300200020005200ED00E017
:1010B00030B50A44084D914200D130BD11F8013BD2
:1010C0005840082340F30004013B2C4013F0FF0379
:1010D00084EA5000F6D1EEE72083B8ED08B5074B5F
:1010E000074A196801F03D01996053680BB1906897
:1010F0009847BDE8084001F011BD00BF0000024064
:10110000BC23002008B5084B1968890901F03D018E
:101110008A019A60054AD3680BB110699847BDE807
:10112000084001F0FBBC00BF00000240BC230020CF
:1011300008B5084B1968090C01F03D010A049A60D2
:10114000054A53690BB190699847BDE8084001F022
:10115000E5BC00BF00000240BC23002008B5084BDE
:101160001968890D01F03D018A059A60054AD36925
:101170000BB1106A9847BDE8084001F0CFBC00BF32
:1011800000000240BC23002008B5074B074A5968FD
:1011900001F03D01D960536A0BB1906A9847BDE8F0
:1011A000084001F0BBBC00BF00000240BC2300208F
:1011B00008B5084B5968890901F03D018A01DA60D8
:1011C000054AD36A0BB1106B9847BDE8084001F09F
:1011D000A5BC00BF00000240BC23002008B5084B9E
:1011E0005968090C01F03D010A04DA60054A536BA5
:1011F0000BB1906B9847BDE8084001F08FBC00BF71
:1012000000000240BC23002008B5084B5968890D36
:1012100001F03D018A05DA60054AD36B0BB1106C11
:101220009847BDE8084001F079BC00BF00000240CB
:10123000BC23002008B5074B074A196801F03D019F
:101240009960536C0BB1906C9847BDE8084001F071
:1012500065BC00BF00040240BC23002008B5084B59
:101260001968890901F03D018A019A60054AD36C29
:101270000BB1106D9847BDE8084001F04FBC00BFAE
:1012800000040240BC23002008B5084B1968090C73
:1012900001F03D010A049A60054A536D0BB1906D4F
:1012A0009847BDE8084001F039BC00BF0004024087
:1012B000BC23002008B5084B1968890D01F03D01D9
:1012C0008A059A60054AD36D0BB1106E9847BDE848
:1012D000084001F023BC00BF00040240BC230020F2
:1012E00008B5074B074A596801F03D01D960536EB4
:1012F0000BB1906E9847BDE8084001F00FBC00BFED
:1013000000040240BC23002008B5084B5968890935
:1013100001F03D018A01DA60054AD36E0BB1106F0E
:101320009847BDE8084001F0F9BB00BF0004024047
:10133000BC23002008B5084B5968090C01F03D0199
:101340000A04DA60054A536F0BB1906F9847BDE805
:10135000084001F0E3BB00BF00040240BC230020B2
:1013600008B5084B5968890D01F03D018A05DA601E
:10137000054AD36F13B1D2F880009847BDE8084002
:1013800001F0CCBB00040240BC23002000230C4A27
:1013900010B519460B4C42F8043B54F82300016089
:1013A00042F813100433402BF7D1074A4FF0FF33B4
:1013B0009360D360C2F80834C2F80C3410BD00BF8B
:1013C000BC230020644500080000024011282DE9DC
:1013D000F041884611D004D8102810D10F240020E5
:1013E00003E0122807D10F2407202D4F4FF0010CE6
:1013F0003D68A04205D900204DE00724EFE70446F0
:10140000F3E70CFA00F6354247D107EBC004354349
:10141000C4E90123F3B23D6073B1224BD3F8D84045
:1014200044F00104C3F8D840D3F8004144F001046B
:10143000C3F80041D3F8003116F47F4F0ED0194B9A
:10144000D3F8D84044F00204C3F8D840D3F80041A0
:1014500044F00204C3F80041D3F800310501124CF6
:101460006359186820F01F001860186810F0010018
:10147000FBD166194FF03D0C96F80CE071680CFA40
:101480000EF70F601860212058611AB14146B07BF9
:1014900000F056F86019BDE8F0810130A9E700BFFF
:1014A000BC230020004402586445000810B53024D5
:1014B00084F31188FFF78AFF002383F3118810BD9E
:1014C00010B50446807B00F051F81649637B012279
:1014D0009A400B6823EA0203DAB20B6072B9124A2F
:1014E000D2F8D81021F00101C2F8D810D2F80011BA
:1014F00021F00101C2F80011D2F8002113F47F4F4E
:101500000ED1094BD3F8D82022F00202C3F8D8201C
:10151000D3F8002122F00202C3F80021D3F80031F1
:1015200010BD00BFBC2300200044025808B5302382
:1015300083F31188FFF7C4FF002383F3118808BDEC
:10154000090100F16043012203F56143C9B283F848
:10155000001300F01F039A4043099B0003F160430E
:1015600003F56143C3F880211A60704700F01F0340
:1015700001229A40430900F160409B0000F5614060
:1015800003F1604303F56143C3F88020C3F8802171
:10159000002380F800337047026843680A43026002
:1015A00003B118477047000013B5406B00F5805435
:1015B000D4F8A4381A681178042914D1017C0229BE
:1015C00011D11979012312898B4013420BD101A942
:1015D0004C3002F07BF9D4F8A4480246019B2179F3
:1015E000206800F0DFF902B010BD0000143002F0F6
:1015F00003B900004FF0FF33143002F0FDB80000D3
:101600004C3002F0CFB900004FF0FF334C3002F005
:10161000C9B90000143002F0D1B800004FF0FF311A
:10162000143002F0CBB800004C3002F09BB900003F
:101630004FF0FF324C3002F095B9000000207047A7
:1016400010B500F58054D4F8A4381A68117804292C
:1016500017D1017C022914D15979012352898B4079
:1016600013420ED1143002F063F8024648B1D4F8A8
:10167000A4084FF4407341790068BDE8104000F0C1
:101680007FB910BD406BFFF7DBBF00007047000063
:101690007FB5124B01250426044603600023057420
:1016A00000F1840243602946C0E902330C4B0290EA
:1016B000143001934FF44073009602F015F8094B73
:1016C00004F69442294604F14C000294CDE90063EB
:1016D0004FF4407302F0D6F804B070BD64460008C1
:1016E00085160008A91500080A68302383F31188BD
:1016F0000B790B3342F823004B79133342F8230064
:101700008B7913B10B3342F8230000F58053C3F8F3
:10171000A41802230374002080F31188704700008E
:1017200038B5037F044613B190F85430ABB90125A6
:10173000201D0221FFF730FF04F114006FF00101BA
:10174000257700F09FFC04F14C0084F854506FF0B2
:101750000101BDE8384000F095BC38BD10B501214D
:1017600004460430FFF718FF0023237784F8543031
:1017700010BD000038B504460025143001F0CCFF40
:1017800004F14C00257702F095F8201D84F85450A0
:101790000121FFF701FF2046BDE83840FFF750BFA9
:1017A00090F88020034602F06002202A14D190F8BD
:1017B00081200020212A02D81F2A03D87047222A1C
:1017C00007D07047054A5A6707229A67D8670120F1
:1017D0007047C3E91D00F9E7002070472C22002064
:1017E00037B500F58055D5F8A4381A681178042962
:1017F0001AD1017C022917D11979012312898B4052
:10180000134211D100F14C04204602F011F958B1F5
:1018100001A9204602F05AF8D5F8A4480246019BD7
:101820002179206800F0BEF803B030BD01F10B0350
:10183000F7B550F8236004460D46F6B1302383F324
:10184000118804EB8507301D08214C36FFF7A4FEF4
:10185000FB685B691B6813B1304602F045F801A9CB
:10186000304602F033F8024648B1019B2946204633
:1018700000F098F8002383F3118803B0F0BDFB68F3
:101880005A691268002AF5D01B8A013B1340F1D136
:1018900004F18002EAE70000133138B550F8214026
:1018A000ECB1302383F3118804F58053D3F8A428D6
:1018B0001368527903EB8203DB689B695D6845B16D
:1018C00004216018FFF768FE294604F1140001F0B6
:1018D00039FF2046FFF7B4FE002383F3118838BD9B
:1018E0007047000001F012BA01234022002110B518
:1018F000044600F8303BFFF7C1FA0023C4E9013386
:1019000010BD000010B53023044683F31188242253
:10191000416000210C30FFF7B1FA204601F018FABF
:1019200002230020237080F3118810BD70B500EBF6
:101930008103054650690E461446DA6018B110223C
:101940000021FFF79BFAA06918B110220021FFF7D0
:1019500095FA31462846BDE8704001F0FFBA000014
:1019600083682022002103F0011310B50446836030
:101970001030FFF783FA2046BDE8104001F078BB35
:10198000F0B4012500EB810447898D40E4683D43B4
:10199000A469458123600023A2606360F0BC01F06C
:1019A00095BB0000F0B4012500EB810407898D4050
:1019B000E4683D436469058123600023A26063609D
:1019C000F0BC01F00BBC000070B5022300250446FA
:1019D000242203702946C0F888500C3040F8045C7B
:1019E000FFF74CFA204684F8705001F04BFA636818
:1019F0001B6823B129462046BDE87040184770BDDA
:101A00000378052B10B504460AD080F88C300523E6
:101A1000037043681B680BB1042198470023A3603F
:101A200010BD00000178052906D190F88C2043688C
:101A300002701B6803B118477047000070B590F83A
:101A40007030044613B1002380F8703004F1800236
:101A5000204601F031FB63689B68B3B994F880308D
:101A600013F0600535D00021204601F019FE002159
:101A7000204601F009FE63681B6813B10621204669
:101A80009847062384F8703070BD20469847002898
:101A9000E4D0B4F88630A26F9A4288BFA36794F965
:101AA0008030A56F002B4FF0300380F20581002DB0
:101AB00000F0F480092284F8702083F3118800215B
:101AC0002046D4E91D23FFF76DFF002383F311881F
:101AD000DAE794F8812003F07F0343EA022340F21F
:101AE0000232934200F0C78021D8B3F5807F48D0FE
:101AF0000DD8012B3FD0022B00F09380002BB2D1E8
:101B000004F1880262670222A267E367C1E7B3F5C6
:101B1000817F00F09D80B3F5407FA4D194F882309E
:101B2000012BA0D1B4F8883043F0020332E0B3F5C2
:101B3000006F4DD017D8B3F5A06F31D0A3F5C063B7
:101B4000012B90D86368204694F882205E6894F850
:101B50008310B4F88430B047002884D043686367AA
:101B60000368A3671AE0B3F5106F36D040F602425F
:101B700093427FF478AF5D4B63670223A367002332
:101B8000C3E794F88230012B7FF46DAFB4F888304E
:101B900023F00203A4F88830C4E91D55E56778E70F
:101BA000B4F88030B3F5A06F0ED194F8823020469F
:101BB00084F88A3001F0C4F963681B6813B101210D
:101BC00020469847032323700023C4E91D339CE774
:101BD00004F18B0363670123C3E72378042B10D13F
:101BE000302383F311882046FFF7BAFE85F311886E
:101BF0000321636884F88B5021701B680BB1204669
:101C0000984794F88230002BDED084F88B30042380
:101C1000237063681B68002BD6D0022120469847AA
:101C2000D2E794F98430204694F88410002B01F018
:101C30000F010ADA01F032FA012804D002287FF4F9
:101C400012AF2B4B98E72B4B96E701F019FAF3E70D
:101C500094F88230002B7FF406AF94F8843013F0B0
:101C60000F01B1D01A06204602D501F031FDABE7D5
:101C700001F022FDA8E794F88230002B7FF4F3AE48
:101C800094F8843013F00F019ED01B06204602D535
:101C900001F006FD98E701F0F7FC95E7142284F8BF
:101CA000702083F311882B462A4629462046FFF7E9
:101CB00067FE85F31188E7E65DB1152284F8702090
:101CC00083F3118800212046D4E91D23FFF758FE35
:101CD000FBE60B2284F8702083F311882B462A46FA
:101CE00029462046FFF75EFEE3E700BF9446000862
:101CF000904600088C46000838B590F870300446CD
:101D0000002B3ED0063BDAB20F2A34D80F2B32D844
:101D1000DFE803F0373131082232313131313131EE
:101D200031313737856FB0F886309D4214D2C368A1
:101D30001B8AB5FBF3F203FB12556DB9302383F315
:101D400011882B462A462946FFF72CFE85F3118879
:101D50000A2384F870300EE0142384F870303023A6
:101D600083F31188002320461A461946FFF708FE20
:101D7000002383F3118838BDC36F03B19847002354
:101D8000E7E70021204601F08BFC0021204601F00E
:101D90007BFC63681B6813B1062120469847062325
:101DA000D7E7000010B590F870300446142B29D006
:101DB00017D8062B05D001D81BB110BD093B022B4B
:101DC000FBD80021204601F06BFC0021204601F0E9
:101DD0005BFC63681B6813B1062120469847062305
:101DE00019E0152BE9D10B2380F87030302383F3F1
:101DF000118800231A461946FFF7D4FD002383F308
:101E00001188DAE7C3689B695B68002BD5D1C36F83
:101E100003B19847002384F87030CEE7002382682E
:101E2000037503691B6899689142FBD25A68036085
:101E30004260106058607047002382680375036930
:101E40001B6899689142FBD85A6803604260106031
:101E50005860704708B50846302383F311880A7D1F
:101E60000023052A06D8DFE802F00B050503120E51
:101E7000826913604FF0FF338361FFF7CFFF0023C8
:101E800083F3118808BD8269936801339360D0E9B8
:101E9000003213605A60EDE7FFF7C0BF054BD96809
:101EA00008751868026853601A600122D8600275CC
:101EB000FEF7A8BA502600200C4B30B5DD684B1C4D
:101EC00087B004460FD02B46094A684600F06EF9E9
:101ED0002046FFF7E3FF009B13B1684600F070F95E
:101EE000A86907B030BDFFF7D9FFF9E750260020F9
:101EF000551E000838B50C4D04468161EB688168B9
:101F00009A68914203D8BDE83840FFF787BF18466A
:101F1000FFF792FF01230146EC6020462375BDE8E0
:101F20003840FEF76FBA00BF50260020044B1A68F5
:101F3000DB6890689B68984294BF0020012070473E
:101F400050260020084B10B51C68D86822685360E2
:101F50001A600122DC602275FFF76EFF0146204601
:101F6000BDE81040FEF74EBA5026002038B50123D8
:101F7000084C00252370656001F096FD01F0BCFD62
:101F80000549064801F092FE0223237085F311886B
:101F900038BD00BFA8260020984600085026002023
:101FA00000F044B9034A516853685B1A9842FBD861
:101FB000704700BF001000E08B60022308610846F4
:101FC0008B8270478368A3F1840243F8142C026962
:101FD00043F8442C426943F8402C094A43F8242C26
:101FE000C268A3F1200043F8182C022203F80C2C3D
:101FF000002203F80B2C034A43F8102C704700BF53
:102000001D0400085026002008B5FFF7DBFFBDE8DF
:102010000840FFF741BF0000024BDB6898610F20CA
:10202000FFF73CBF50260020302383F31188FFF7D1
:10203000F3BF000008B50146302383F31188082060
:10204000FFF73AFF002383F3118808BD064BDB68D6
:1020500039B1426818605A60136043600420FFF78A
:102060002BBF4FF0FF30704750260020034600681A
:10207000834205D002681A6053608161FFF70CBF8C
:102080007047000038B504460D462068844200D1F0
:1020900038BD036823605C608561FFF7FDFEF4E7EF
:1020A000036810B59C68A2420CD85C680B608A601B
:1020B0004C60216059609968891A99604FF0FF332C
:1020C000836010BD121B1B68ECE700000A2938BFB3
:1020D0000A2170B504460D460A26601901F0DEFC9F
:1020E00001F0C6FC041BA54203D8751C04462E460D
:1020F000F3E70A2E04D90120BDE8704001F016BEB6
:1021000070BD0000F8B5144B14460A270D46D9617E
:102110000A2C826003F1100238BF0A2442601A6957
:10212000026050601861081901F0A8FC01F0A0FCE1
:10213000431B0646A34206D37C1C28192746354676
:1021400001F0ACFCF2E70A2F04D90120BDE8F84009
:1021500001F0ECBDF8BD00BF5026002070B50D4663
:10216000064601F085FC0F490B4653F8102F9A42A2
:1021700006D12A4601463046BDE87040FFF7C2BF8F
:10218000CB69C41A93682C1928BF2C46A34202D9E4
:102190002946FFF79BFF224631460348BDE87040C1
:1021A000FFF77EBF502600206026002010B4C0E953
:1021B000032300235DF8044B4361FFF7CFBF00000A
:1021C00010B5194C236998420DD08168D0E90032CE
:1021D00013605A609A680A449A60002303604FF0C3
:1021E000FF33A36110BD0268234643F8102F5360EC
:1021F0000022026022699A4203D1BDE8104001F03A
:1022000047BC936881680B44936001F031FC2269FC
:10221000E1699268441AA242E4D91144BDE8104031
:10222000091AFFF753BF00BF502600202DE9F047E1
:10223000DFF8B88008F110072B4ED8F8105001F0E5
:1022400017FCD8F81C40AA68011B8A423DD81444E8
:10225000D5E90032C8F81C4013605A6000232B6097
:102260009946D8F81020B24201D101F011FC89F34F
:102270001188D5E9033128469847302383F3118824
:102280006B69002BD9D001F0F3FB6A69A0EB04095C
:1022900082464A450DD2022001F048FD0022D8F8BE
:1022A0001030B34208D151462846BDE8F047FFF749
:1022B00029BF2244121AF2E712EB090929463846CF
:1022C00038BF4A46FFF7ECFEB6E7D8F81010B14227
:1022D00008D01444C8F81C00211AA960BDE8F047D2
:1022E000FFF7F4BEBDE8F0876026002050260020EE
:1022F00000207047FEE70000704700004FF0FF30FD
:102300007047000002290CD0032904D00129074896
:1023100018BF00207047032A05D8054800EBC2000B
:102320007047044870470020704700BF54470008BA
:10233000342200200847000870B59AB005460846C8
:10234000144601A900F0BEF801A8FEF795FD431C54
:102350000022C6B25B001046C5E900342370032397
:10236000023404F8013C01ABD1B202348E4201D8F0
:102370001AB070BD13F8011B013204F8010C04F807
:10238000021CF1E708B5302383F311880348FFF7F7
:1023900027FA002383F3118808BD00BF40290020DD
:1023A00090F8803003F01F02012A07D190F88120B5
:1023B0000B2A03D10023C0E91D3315E003F06003AD
:1023C000202B08D1B0F884302BB990F88120212A35
:1023D00003D81F2A04D8FFF7E3B9222AEBD0FAE783
:1023E000034A426707228267C3670120704700BF24
:1023F0005422002010B50446052916D8DFE801F064
:1024000016150316161D302383F311880E4A012179
:10241000FFF78CFA20460D4A0221FFF787FA0C4895
:10242000FFF7A8F9002383F3118810BD302383F34D
:1024300011880748FFF774F9F4E7302383F3118814
:102440000348FFF78BF9EDE7E0460008BC460008BB
:102450004029002038B50B4D0B4C2A460B4920462D
:10246000FFF76AFF05F1CA0204F108000849FFF707
:1024700063FF05F5CA7204F110000649BDE8384053
:10248000FFF75ABFE02600203C2200201A45000832
:10249000244500082F45000870B5044608460D463F
:1024A000FEF7EAFCC6B22046013403780BB91846A1
:1024B00070BD32462946FEF7CBFC0028F3D101203F
:1024C000F6E700002DE9F04106460C46FEF7D4FC85
:1024D0002849C5B23046FFF7DFFF27493046FFF7EE
:1024E000DBFF08B11035EDB2632D07D8214FDFF8BF
:1024F0008880357845B92570BDE8F08131462046A1
:10250000BDE8F04101F0E2BF252D2ED1072239466A
:102510003046FEF79DFC60B9184B073607341A6841
:1025200044F8072C9A889B7924F8032C04F8013C82
:10253000DFE7082241463046FEF78AFCA8B9A21C14
:102540000F4B1048104D197802320909415C02F80E
:10255000041C13F8011B01F00F01AB42415C02F8AF
:10256000031CF0D118340836C3E7013604F8015BC8
:10257000BFE700BF384500082F4500084045000868
:1025800000E8F11F484500080CE8F11FBFF34F8F2A
:10259000044B1A695107FCD1D3F810215207F8D126
:1025A000704700BF0020005208B50D4B1B78ABB937
:1025B000FFF7ECFF0B4BDA68D10704D50A4A5A60E3
:1025C00002F188325A60D3F80C21D20706D5064AA8
:1025D000C3F8042102F18832C3F8042108BD00BF0A
:1025E000E8410020002000522301674508B5114B47
:1025F0001B78F3B9104B1A69510703D5DA6842F01A
:102600004002DA60D3F81021520705D5D3F80C2127
:1026100042F04002C3F80C21FFF7B8FF064BDA681E
:1026200042F00102DA60D3F80C2142F00102C3F853
:102630000C2108BDE8410020002000520F289ABF5D
:1026400000F5806040040020704700004FF4003027
:1026500070470000102070470F2808B50ED8FFF70C
:10266000EDFF0368013309D100F5003304308342E4
:1026700001D1012008BD02680132F7D00020F9E73E
:102680000F2838B505463FD8FFF780FF1F4CFFF7EE
:102690008BFF4FF0FF3307286361C4F814311DD856
:1026A0002361FFF773FF030243F02403E360E36851
:1026B00043F08003E36023695A07FCD42846FFF700
:1026C00065FFFFF7BBFF4FF4003100F0C7F9284664
:1026D000FFF78CFFBDE83840FFF7BEBFC4F81031EC
:1026E000FFF754FFA0F108031B0243F02403C4F8D2
:1026F0000C31D4F80C3143F08003C4F80C31D4F819
:1027000010315B07FBD4D9E7002038BD0020005210
:102710002DE9F84F04460D46104644EA0203DB0655
:1027200002D00020BDE8F88F20F01F00DFF8E0A005
:10273000DFF8E0B0FFF738FF05EB0008454503D1AF
:102740000120FFF753FFEDE720222946204601F044
:10275000ADFE10B920342035F0E723680133E0D115
:10276000234604F120020433934244D104F1784318
:10277000234E2448B3F5801F234B28BF9946A3F569
:1027800082732EBF5846D1461E46FFF7FFFE4FF01C
:10279000FF33A4EB050C05F11C010360336843F023
:1027A000020333602B1FD9F8007017F00507FAD128
:1027B00053F8042F8B424CF80320F4D1BFF34F8F12
:1027C000FFF7E4FE4FF0FF330360336823F00203AA
:1027D0003360BFF34F8F0D4BC3F85C42BFF34F8F95
:1027E000BFF36F8F20222946204601F05FFE0028AC
:1027F000B0D03846A5E719680131B4D091E700BFE1
:102800000C210052142000521021005200ED00E073
:10281000102000521421005210B5084C237828B122
:102820001BB9FFF7C1FE0123237010BD002BFCD0A4
:102830002070BDE81040FFF7D9BE00BFE84100207E
:102840002DE9F74F0E460546002876D011F00D0809
:1028500039D1002944D04FF0080A4FF00109384F10
:1028600006F0040306EA090BBBF1000F44D07969B6
:10287000C90741D409F101090C37B9F1060FF3D1A9
:10288000B8F1000F13D12F4E5246294606EB08002F
:1028900001F054F9044658BB08F11808B8F1780F54
:1028A000F2D15246294601F049F9044600BB52468E
:1028B0002946254801F042F90446002838D120462F
:1028C00003B0BDE8F08F080707D56B1E2B4234D14B
:1028D000AA461F3525F01F05BFE74FF0200AF8E78D
:1028E00001460822304601F029F904460028B2D0FA
:1028F0002A46002120461DE013B179694A07B9D55F
:10290000B40702D579698807B4D5310702D579694A
:102910000A07AFD5019318200C4B5246294600FBFD
:10292000093001F00BF9019B04460028A2D0DFE733
:102930002A460021FEF7A2FAC1E70024BFE700BF44
:10294000704700081C420020EC4100200442002097
:102950000121FFF775BF0000F8B5144D01241827B9
:10296000134E40F2FF3200210120FEF787FA07FBE9
:10297000046001342A6955F80C1F01F0CBF8062CCD
:10298000F5D137254FF4C0542046FFF7E1FF01464B
:1029900028B122460748BDE8F84001F0BBB8C4EBB7
:1029A000C404013D4FEAD404EED1F8BD70470008DD
:1029B00004420020EC41002008B101F033B9704717
:1029C0000244074BD2B210B5904200D110BD441C56
:1029D00000B253F8200041F8040BE0B2F4E700BF66
:1029E000504000580E4B30B51C6F240405D41C6FAA
:1029F0001C671C6F44F400441C670A4C02442368A3
:102A0000D2B243F480732360074B904200D130BDB3
:102A1000441C51F8045B00B243F82050E0B2F4E7E4
:102A200000440258004802585040005807B501229F
:102A300001A90020FFF7C4FF019803B05DF804FB73
:102A400013B50446FFF7F2FFA04205D0012201A909
:102A500000200194FFF7C6FF02B010BD0144BFF390
:102A60004F8F064B884204D3BFF34F8FBFF36F8F56
:102A70007047C3F85C022030F4E700BF00ED00E0CF
:102A8000034B1A681AB9034AD2F8D0241A60704767
:102A9000944200200040025808B5FFF7F1FF024BB6
:102AA0001868C0F3806008BD94420020EFF30983EA
:102AB000054968334A6B22F001024A6383F30988AF
:102AC000002383F31188704700EF00E0302080F38B
:102AD000118862B60D4B0E4AD96821F4E0610904F1
:102AE000090C0A430B49DA60D3F8FC2042F08072EB
:102AF000C3F8FC20084AC2F8B01F116841F0010178
:102B000011602022DA7783F82200704700ED00E0A0
:102B10000003FA0555CEACC5001000E0302310B517
:102B200083F311880E4B5B6813F4006314D0F1EE4D
:102B3000103AEFF309844FF08073683CE361094B6E
:102B4000DB6B236684F30988FFF7F0F910B1064BBD
:102B5000A36110BD054BFBE783F31188F9E700BFC4
:102B600000ED00E000EF00E02F0400083204000850
:102B700070B5BFF34F8FBFF36F8F1A4A0021C2F8B1
:102B80005012BFF34F8FBFF36F8F536943F400337D
:102B90005361BFF34F8FBFF36F8FC2F88410BFF341
:102BA0004F8FD2F8803043F6E074C3F3C900C3F30B
:102BB0004E335B0103EA0406014646EA817501399A
:102BC000C2F86052F9D2203B13F1200FF2D1BFF3CB
:102BD0004F8F536943F480335361BFF34F8FBFF37B
:102BE0006F8F70BD00ED00E0FEE700001E4A1F4B36
:102BF0001F4970B58B422ED31E4A002193422FD31A
:102C00001D4AC2F88410BFF34F8FD2F8803043F6CC
:102C1000E074C3F3C900C3F34E335B0103EA040657
:102C2000014646EA81750139C2F86C52F9D2203B5F
:102C300013F1200FF2D1BFF34F8FBFF36F8FBFF3AC
:102C40004F8FBFF36F8F0023C2F85032BFF34F8F07
:102C5000BFF36F8F70BD52F8040B43F8040BC9E744
:102C600043F8041BCAE700BF8449000888440020D9
:102C7000884400208844002000ED00E0074BD3F892
:102C8000D82022EA0002C3F8D820D3F8002122EA93
:102C90000002C3F80021D3F8003170470044025805
:102CA00070B5D0E9244300224FF0FF359E6804EB55
:102CB00042135101D3F80009002805DAD3F80009BE
:102CC00040F08040C3F80009D3F8000B002805DA73
:102CD000D3F8000B40F08040C3F8000B01326318BA
:102CE000B242C3F80859C3F8085BE0D94FF00113AA
:102CF000C4F81C3870BD0000890141F02001016159
:102D000003699B06FCD41220FFF74CB910B50A4C9E
:102D10002046FEF7E9FD094BC4F89030084BC4F893
:102D20009430084C2046FEF7DFFD074BC4F8903086
:102D3000064BC4F8943010BD4C43002000000840FE
:102D4000C4470008B042002000000440B847000813
:102D500070B503780546012B5CD1434BD0F8904009
:102D6000984258D1414B0E216520D3F8D82042F02B
:102D70000062C3F8D820D3F8002142F00062C3F803
:102D80000021D3F80021D3F8802042F00062C3F87C
:102D90008020D3F8802022F00062C3F88020D3F88E
:102DA0008030FEF7CDFB324BE360324BC4F8003885
:102DB0000023D5F89060C4F8003EC02323604FF490
:102DC0000413A3633369002BFCDA01230C20336165
:102DD000FFF7E8F83369DB07FCD41220FFF7E2F8CD
:102DE0003369002BFCDA00262846A660FFF758FF5F
:102DF0006B68C4F81068DB68C4F81468C4F81C6811
:102E000083BB1D4BA3614FF0FF336361A36843F0A5
:102E10000103A36070BD194B9842C9D1134B4FF009
:102E200080600E21D3F8D82042F00072C3F8D82079
:102E3000D3F8002142F00072C3F80021D3F800213A
:102E4000D3F8802042F00072C3F88020D3F88020AD
:102E500022F00072C3F88020D3F88030FFF70EFF15
:102E60004D209EE7064BCDE74C430020004402581E
:102E70004014004003002002003C30C0B04200205B
:102E8000083C30C0F8B5D0F89040054600214FF01E
:102E900000662046FFF730FFD5F8941000234FF06E
:102EA00001128F684FF0FF30C4F83438C4F81C2882
:102EB00004EB431201339F42C2F80069C2F8006B71
:102EC000C2F80809C2F8080BF2D20B68D5F89020B6
:102ED000C5F89830636210231361166916F0100666
:102EE000FBD11220FFF75EF8D4F8003823F4FE631C
:102EF000C4F80038A36943F4402343F01003A361EE
:102F00000923C4F81038C4F814380B4BEB604FF0A9
:102F1000C043C4F8103B094BC4F8003BC4F8106927
:102F2000C4F80039D5F8983003F1100243F4801347
:102F3000C5F89820A362F8BDD04700084080001073
:102F4000D0F8902090F88A10D2F8003823F4FE636D
:102F500043EA0113C2F80038704700002DE9F84336
:102F600000EB81030C460FFA81F9D0F89050D96834
:102F70000022804660010E6806F00306731E022BD5
:102F800005EB441398BFB604C3F8102B04F11002EC
:102F90004FF0010394BF06F18056334E03FA02F35B
:102FA0008A6998BF06F50046002A39D04F8A04F195
:102FB000580237435201AF50D5F81C281343002262
:102FC000C5F81C382B180127C3F81029A7404A69F7
:102FD000631E92B30A8A4033898B9208012905EB5C
:102FE000830388BF4A43D8F89810501841EA024139
:102FF000C8F89800284659602146FFF77DFE08EB87
:103000008900C3681B8A43EA84534834334364010C
:103010002B51D5F81C383B43C5F81C38BDE8F88364
:1030200005EB4917D7F8002B22F40042C7F8002B14
:10303000D5F81C2822EA0303C1E704F13F030B4A39
:103040002146284605EB83035A60FFF755FE05EB42
:103050004913D3F8002922F40042C3F80029D5F817
:103060001C3823EA0703D7E70080001000040002A1
:10307000D0F894201268C0F89820FFF711BE000025
:103080005831D0F8903049015B5813F4004004D017
:1030900013F4001F14BF0120022070474831D0F8FC
:1030A000903049015B5813F4004004D013F4001F22
:1030B00014BF01200220704700EB8100C368196A29
:1030C0000B6813604B6853607047000000EB81038E
:1030D00030B5DD68AA691368D36019B9402B84BF85
:1030E000402313606B8A1468D0F890201C4402EBD4
:1030F0004110013C09B2B4FBF3F46343033323F002
:10310000030343EAC44343F0C043C0F8103B2B68B9
:1031100003F00303012B0ED1D2F8083802EB411063
:1031200013F4807FD0F8003B14BF43F0805343F08A
:103130000053C0F8003B02EB4112D2F8003B43F0D1
:103140000443C2F8003B30BD2DE9F041D0F8906057
:1031500005460C4606EB4113D3F8087B3A07C3F843
:10316000087B08D5D6F814381B0704D500EB81037B
:10317000DB685B689847FA071FD5D6F81438DB0779
:103180001BD505EB8403D9688B69C4B9488A5A6892
:10319000B2FBF0F600FB16228AB91868DA68904292
:1031A0000DD2121AC3E90024302383F3118821467B
:1031B0002846FFF78BFF84F31188BDE8F0810122D8
:1031C0006B89A24023EA02036B81CB68002BF4D009
:1031D00021462846BDE8F0411847000000EB810376
:1031E0004A0170B5DD68D0F890306C692668E660F9
:1031F0004EBB1A444FF40020C2F810092A6802F0AE
:103200000302012A0AB20ED1D3F8080803EB4214D4
:1032100010F4807FD4F8000914BF40F0805040F0D3
:103220000050C4F8000903EB4212D2F8000940F044
:103230000440C2F800090122D3F834088A4002434E
:10324000C3F8342870BD19B9402E84BF40202060D7
:1032500020681A442E8A8419013CB4FBF6F440EA33
:10326000C44040F00050C7E72DE9F843D0F8906023
:1032700005460C464F0106EB4113D3F8088918F0B8
:10328000010FC3F808891CD0D6F81038DB0718D511
:1032900000EB8103D3F80CC0DCF81430D3F800E065
:1032A000DA68964530D2A2EB0E024FF000091A60A0
:1032B000C3F80490302383F31188FFF78FFF89F35D
:1032C000118818F0800F1DD0D6F834380126A6409A
:1032D000334217D005EB84030134D5F89050D3F86E
:1032E0000CC0E4B22F44DCF8142005EB0434D2F80F
:1032F00000E05168714513D3D5F8343823EA06034A
:10330000C5F83438BDE8F883012203898A4023EAEE
:1033100002030381DCF80830002BD2D09847D0E7B5
:10332000AEEB0103BCF81000834228BF0346D7F878
:10333000180980B2B3EB800FE4D89068A0F10409BB
:1033400059F8048FC4F80080A0EB09089844B8F13C
:10335000040FF5D81844194490605160C9E7000083
:103360002DE9F047D0F8905004466E69AB691E40D5
:1033700016F480586E6103D0BDE8F047FEF724BB19
:10338000002E12DAD5F8003E9B0705D0D5F8003E96
:1033900023F00303C5F8003ED5F80438204623F097
:1033A0000103C5F80438FEF73DFB370505D5204677
:1033B000FFF776FC2046FEF723FBB0040CD5D5F8CA
:1033C000083813F0060FEB6823F470530CBF43F476
:1033D000105343F4A053EB6031071BD56368DB68DF
:1033E0001BB9AB6923F00803AB612378052B0CD123
:1033F000D5F8003E9A0705D0D5F8003E23F0030328
:10340000C5F8003E2046FEF70DFB6368DB680BB194
:1034100020469847F30234D50021D4F890900F4607
:1034200009EB4713D3F8002902F44022B2F5802FAC
:103430001FD1D3F80029002A1BDAD3F8002942F063
:103440009042C3F80029D3F80029002AFBDBD4F806
:103450009000FFF751FC01222389BA4023EA0203BE
:10346000238104EB8703DB689B6813B13946204650
:1034700098470137D4F89430FFB29B689F42394691
:10348000CED9B70226D5D4F8909000274FF0010A84
:1034900009EB4712D2F8003B03F44023B3F5802F29
:1034A00011D1D2F8003B002B0DDA63890AFA07F23A
:1034B00023EA0203638104EB8703DB68DB6813B153
:1034C0003946204698470137D4F89430FFB29B68BC
:1034D0009F42DDD9F00618D5D4F89000026AC2F3F5
:1034E0000A1702F00F0302F4F012B2F5802F00F079
:1034F0008D80B2F5402F08D104EB8303002200F544
:103500008050DB681B6A974273D13003D5F8185896
:1035100035D5E90303D500212046FFF715FEAA03A0
:1035200003D501212046FFF70FFE6B0303D50221CF
:103530002046FFF709FE2F0303D503212046FFF79E
:1035400003FEE80203D504212046FFF7FDFDA90292
:1035500003D505212046FFF7F7FD6A0203D50621B2
:103560002046FFF7F1FD2B0203D507212046FFF788
:10357000EBFDEF0103D508212046FFF7E5FD7003C1
:103580006BD5E90703D500212046FFF76DFEAA079A
:1035900003D501212046FFF767FE6B0703D5022103
:1035A0002046FFF761FE2F0703D503212046FFF7D2
:1035B0005BFEEE0603D504212046FFF755FEA80664
:1035C00003D505212046FFF74FFE690603D50621E6
:1035D0002046FFF749FE2A0603D507212046FFF7BC
:1035E00043FEEB0539D520460821BDE8F047FFF73B
:1035F0003BBE910701D1D0F80080072A02F10102F9
:103600009CBF03F8018B4FEA18287CE704EB830387
:1036100000F58050DA68D2F818C0DCF80820DCE940
:10362000001CA1EB0C0C00218F4208D1DB689B69C8
:103630009A683A449A605A683A445A6065E711F0C9
:10364000030F01D1D0F800808C4501F1010184BF46
:1036500002F8018B4FEA1828E6E7BDE8F087000082
:1036600008B50348FFF77CFEBDE80840FFF756BAEF
:103670004C43002008B50348FFF772FEBDE8084040
:10368000FFF74CBAB0420020D0F8903003EB411164
:10369000D1F8003B43F40013C1F8003B7047000031
:1036A000D0F8903003EB4111D1F8003943F4001306
:1036B000C1F8003970470000D0F8903003EB411199
:1036C000D1F8003B23F40013C1F8003B7047000021
:1036D000D0F8903003EB4111D1F8003923F40013F6
:1036E000C1F800397047000030B50433039C017203
:1036F000002104FB0325C160C0E90653049B03635A
:10370000059BC0E90000C0E90422C0E90842C0E905
:103710000A11436330BD00000022416AC260C0E963
:103720000411C0E90A226FF00101FEF7ABBC0000F2
:10373000D0E90432934201D1C2680AB9181D70471A
:1037400000207047036919600021C2680132C2601D
:10375000C269134482699342036124BF436A0361CF
:10376000FEF784BC38B504460D46E3683BB1626998
:103770000020131D1268A3621344E36207E0237A5A
:1037800033B929462046FEF761FC0028EDDA38BD42
:103790006FF00100FBE70000C368C269013BC36032
:1037A0004369134482699342436124BF436A43617E
:1037B00000238362036B03B11847704770B5302351
:1037C000044683F31188866A3EB9FFF7CBFF0546AE
:1037D00018B186F31188284670BDA36AE26A13F80F
:1037E000015B9342A36202D32046FFF7D5FF00237B
:1037F00083F31188EFE700002DE9F84F04460F46E8
:1038000091469A464FF0300888F311880026B34657
:10381000A56A4DB951462046FFF7A4FF20B185F3B4
:1038200011883046BDE8F88FD4E90A15A9EB0603E4
:103830006D1A9D4228BF1D46402D1AD93B4601F105
:10384000400251F8040B914243F8040BF9D1A36AEA
:10385000403740364033E26AA3629A4202D820469B
:10386000FFF79AFF8BF311884E45DAD288F311885F
:10387000CEE738462A46FDF7E1FAA36A2F442E44E4
:103880002B44E8E710B5029C0433017203FB0421CA
:10389000C460C0E906130023C0E90A33039B036335
:1038A000049BC0E90000C0E90422C0E90842436368
:1038B00010BD0000026A6FF00101C260426AC0E9F7
:1038C00004220022C0E90A22FEF7DCBB0346D0E94D
:1038D0000420824201D1DB681BB950F8043B0B6025
:1038E000704700231846FAE7C3680021C269013314
:1038F000C3604369134482699342436124BF436AAE
:103900004361FEF7B3BB000038B504460D46E368DB
:103910003BB1236900201A1DA262E2691344E362ED
:1039200007E0237A33B929462046FEF78FFB0028AB
:10393000EDDA38BD6FF00100FBE7000003691960A4
:10394000C268013AC260C26913448269934203614A
:1039500024BF436A036100238362036B03B11847EA
:103960007047000070B530230D460446114683F3BE
:103970001188866A2EB9FFF7C7FF10B186F3118848
:1039800070BDA36A1D70A36AE26A01339342A36209
:1039900004D3E16920460439FFF7D0FF002080F30B
:1039A0001188EDE72DE9F84F05460C4691469A46F9
:1039B0004FF0300888F311880027BB46AE6A4EB935
:1039C00051462846FFF7A0FF20B186F311883846FC
:1039D000BDE8F88FD5E90A06A9EB0703361A9E421F
:1039E00028BF1E46402E1AD904F1400354F8042B78
:1039F0009C4240F8042BF9D1AB6A40374033EA6A65
:103A0000AB629A4204D8E96928460439FFF796FF69
:103A10008BF311884F45DAD288F31188CEE721461F
:103A20003246FDF70BFAAB6A344437443344E6E7D9
:103A3000D0E9042103468A4216D1C068A8B1986A29
:103A400098B10438801A10D010600120D96801396B
:103A5000D960D9690A4499698A421A6124BF5A6AAD
:103A60001A6100229A6270470020704700F060BA25
:103A7000014B586A704700BF000C0040034B002206
:103A800058631A610222DA60704700BF000C0040E0
:103A9000014B0022DA607047000C0040014B586374
:103AA000704700BF000C0040024B034A1A60034AF3
:103AB0005A607047E843002088440020000002203C
:103AC000074B494210B55C68201A08401968821AF1
:103AD0008A4203D3A24201D85A6010BD0020FCE7FD
:103AE000E843002008B5302383F31188FFF7E8FF8F
:103AF000002383F3118808BD04480121044B0360AF
:103B00000023C0E901330C3000F018B9F043002065
:103B1000E53A0008CB1D083A23F00703591A521A58
:103B2000012110B4D2080024C0E9004384600C30A5
:103B30001C605A605DF8044B00F000B92DE9F84FA5
:103B4000374BCD1D0F46002814BF80469846082AE3
:103B50004FEAD50538BF082208F10C0A91465046B5
:103B600000F008F908F1040209F10701C9F1000C9D
:103B7000146874B9504600F007F9D8F80030CBB398
:103B800008224946E8009847044698B340E902876E
:103B900030E06618D4F804E006EA0C060EF10103E2
:103BA000A6F1080004EBC303834237D99E1BB5EB93
:103BB000E60F4FEAE60B31D884421ED204F1080327
:103BC000AB45A0EB03034FEAE30363600BD9691C29
:103BD000ABEB050B00EBC1020BF1FF335360236825
:103BE00040F83130226004464760504644F8088B64
:103BF00000F0CAF82046BDE8F88FAE4521680AD02B
:103C0000013504EBC50044F8351000F108015B1ADA
:103C10000146DB10436020461160E4E72246A7E737
:103C2000F0430020F8B550F8043C044650F8085C16
:103C3000A0F1080607332F1D0C35DB0840F8043CC3
:103C4000284600F097F83B469F421A6801D0B342DD
:103C500028D20AB1964225D244F8082C54F8042CF4
:103C60001E60013254F8081C06EBC200814206D1E6
:103C7000486810440A6844F8040C44F8082C596851
:103C80004A1C03EBC202964207D154F8042C0132BD
:103C90000A445A6054F8082C1A602846BDE8F840D7
:103CA00000F072B81346CFE7FEE7000070B50025BC
:103CB00004461A4B86B085620E4601635860FEF7D3
:103CC00005FF04F11003A560E562C4E904334FF079
:103CD000FF33C4E90044C4E90635FFF7C9FE2B46AB
:103CE000024604F134012046C4E9082380230C4A2B
:103CF0002565FEF761F901230A4AE0600092037529
:103D0000684672680192B268CDE90223064BCDE99C
:103D10000435FEF779F906B070BD00BFA826002073
:103D2000594500085E450008A93C0008024AD36ACC
:103D30000343D362704700BF50260020C0E9000053
:103D4000816070478368013B002B10B583600CDAFB
:103D5000074BDC684368A061206063601C604460BE
:103D60000520FEF79BF8A06910BD0020FCE700BF0E
:103D70005026002008B5302383F31188FFF7E2FFB7
:103D8000002383F3118808BD08B53022034682F36F
:103D9000118882680132002A826006DC00680021F6
:103DA00002681A605360FEF7A5F8002383F31188B8
:103DB00008BD00004B6843608B688360CB68C360BC
:103DC0000B6943614B6903628B6943620B68036053
:103DD0007047000008B53B4B40F2FF713A48D3F8FA
:103DE00088200A43C3F88820D3F888206FF30A029A
:103DF000C3F88820D3F88820D3F8E0200A43C3F81A
:103E0000E020D3F808210A43C3F808212F4AD3F849
:103E100008311146FFF7CEFF00F5806002F11C016A
:103E2000FFF7C8FF00F5806002F13801FFF7C2FF1D
:103E300000F5806002F15401FFF7BCFF00F58060DF
:103E400002F17001FFF7B6FF00F5806002F18C010E
:103E5000FFF7B0FF00F5806002F1A801FFF7AAFFAD
:103E600000F5806002F1C401FFF7A4FF00F5806057
:103E700002F1E001FFF79EFF00F5806002F1FC0116
:103E8000FFF798FF02F58C7100F58060FFF792FF55
:103E900000F01AF90E4BD3F8902242F00102C3F859
:103EA0009022D3F8942242F00102C3F89422052212
:103EB000C3F898204FF06052C3F89C20054AC3F81D
:103EC000A02008BD0044025800000258F447000832
:103ED00000ED00E01F00080308B500F0C9FAFEF786
:103EE00045F8104BD3F8DC2042F04002C3F8DC2048
:103EF000D3F8042122F04002C3F80421D3F804319E
:103F0000094B1A6842F008021A601A6842F004026B
:103F10001A60FEF7B5FDFEF71FFDBDE80840FEF78D
:103F200099BA00BF004402580018024870470000C8
:103F3000114BD3F8E82042F00802C3F8E820D3F888
:103F4000102142F00802C3F810210C4AD3F81031B6
:103F5000D36B43F00803D363C722094B9A624FF037
:103F6000FF32DA6200229A615A63DA605A600122F3
:103F70005A611A60704700BF004402580010005C8C
:103F8000000C0040094A08B51169D3680B40D9B24A
:103F90009B076FEA0101116107D5302383F3118874
:103FA000FDF7FEFF002383F3118808BD000C0040DD
:103FB000064BD3F8DC200243C3F8DC20D3F80421FD
:103FC0001043C3F80401D3F8043170470044025889
:103FD00008B53C4B4FF0FF31D3F8802062F000422F
:103FE000C3F88020D3F8802002F00042C3F880207C
:103FF000D3F88020D3F88420C3F88410D3F8842029
:104000000022C3F88420D3F88400D86F40F0FF402A
:1040100040F4FF0040F4DF4040F07F00D867D86FE5
:1040200020F0FF4020F4FF0020F4DF4020F07F006C
:10403000D867D86FD3F888006FEA40506FEA5050C5
:10404000C3F88800D3F88800C0F30A00C3F88800DA
:10405000D3F88800D3F89000C3F89010D3F89000FC
:10406000C3F89020D3F89000D3F89400C3F89410CC
:10407000D3F89400C3F89420D3F89400D3F89800B0
:10408000C3F89810D3F89800C3F89820D3F8980094
:10409000D3F88C00C3F88C10D3F88C00C3F88C20B4
:1040A000D3F88C00D3F89C00C3F89C10D3F89C1074
:1040B000C3F89C20D3F89C30FDF768F9BDE80840B0
:1040C00000F0AEB90044025808B50122534BC3F8C2
:1040D0000821534BD3F8F42042F00202C3F8F42035
:1040E000D3F81C2142F00202C3F81C210222D3F8AB
:1040F0001C314C4BDA605A689104FCD54A4A1A606C
:1041000001229A60494ADA6000221A614FF4404263
:104110009A61444B9A699204FCD51A6842F4807201
:104120001A603F4B1A6F12F4407F04D04FF4803274
:104130001A6700221A671A6842F001021A60384BA7
:104140001A685007FCD500221A611A6912F0380269
:10415000FBD1012119604FF0804159605A67344A00
:10416000DA62344A1A611A6842F480321A602C4BBF
:104170001A689103FCD51A6842F480521A601A68D2
:104180009204FCD52C4A2D499A6200225A63196385
:1041900001F57C01DA6301F5E77199635A64284AF5
:1041A0001A64284ADA621A6842F0A8521A601C4B54
:1041B0001A6802F02852B2F1285FF9D148229A61B8
:1041C0004FF48862DA6140221A621F4ADA641F4A99
:1041D0001A651F4A5A651F4A9A6532231E4A1360A0
:1041E000136803F00F03022BFAD10D4A136943F051
:1041F00003031361136903F03803182BFAD14FF04E
:104200000050FFF7D5FE4FF08040FFF7D1FE4FF092
:104210000040BDE80840FFF7CBBE00BF0080005162
:10422000004402580048025800C000F0020000019B
:104230000000FF010088900832206000630209013D
:10424000470E0508DD0BBF01200000200000011013
:104250000910E00000010110002000524FF0B042B0
:1042600008B5D2F8883003F00103C2F8883023B1D2
:10427000044A13680BB150689847BDE80840FEF740
:104280004DBC00BF084400204FF0B04208B5D2F842
:10429000883003F00203C2F8883023B1044A9368DF
:1042A0000BB1D0689847BDE80840FEF737BC00BFA7
:1042B000084400204FF0B04208B5D2F8883003F02F
:1042C0000403C2F8883023B1044A13690BB1506962
:1042D0009847BDE80840FEF721BC00BF0844002015
:1042E0004FF0B04208B5D2F8883003F00803C2F8A6
:1042F000883023B1044A93690BB1D0699847BDE86F
:104300000840FEF70BBC00BF084400204FF0B0424D
:1043100008B5D2F8883003F01003C2F8883023B112
:10432000044A136A0BB1506A9847BDE80840FEF78B
:10433000F5BB00BF084400204FF0B04310B5D3F8E0
:10434000884004F47872C3F88820A30604D5124A82
:10435000936A0BB1D06A9847600604D50E4A136B76
:104360000BB1506B9847210604D50B4A936B0BB1E8
:10437000D06B9847E20504D5074A136C0BB1506C1B
:104380009847A30504D5044A936C0BB1D06C9847A9
:10439000BDE81040FEF7C2BB084400204FF0B04318
:1043A00010B5D3F8884004F47C42C3F88820620535
:1043B00004D5164A136D0BB1506D9847230504D5EB
:1043C000124A936D0BB1D06D9847E00404D50F4AA3
:1043D000136E0BB1506E9847A10404D50B4A936E2F
:1043E0000BB1D06E9847620404D5084A136F0BB125
:1043F000506F9847230404D5044A936F0BB1D06FD4
:104400009847BDE81040FEF789BB00BF0844002074
:1044100008B5FFF7B7FDBDE80840FEF77FBB000019
:10442000062108B50846FDF78BF806210720FDF7A1
:1044300087F806210820FDF783F806210920FDF7FB
:104440007FF806210A20FDF77BF806211720FDF7EB
:1044500077F806212820FDF773F809217A20FDF767
:104460006FF807213220BDE80840FDF769B8000069
:1044700008B5FFF7ADFD00F00BF8FDF733FAFDF7D7
:1044800005F9FFF753FDBDE80840FFF7EFBA00005C
:104490000023054A19460133102BC2E9001102F12D
:1044A0000802F8D1704700BF0844002010B5013958
:1044B0000244904201D1002005E0037811F8014F39
:1044C000A34201D0181B10BD0130F2E7034611F8DA
:1044D000012B03F8012B002AF9D1704701105A0073
:1044E00003105900012058000320560053544D3347
:1044F0003248373F3F3F0053544D333248373378CB
:104500002F3732780053544D3332483734332F37F6
:1045100035332F3735300063300041726475506990
:104520006C6F740025424F415244252D424C0025AA
:1045300053455249414C250025424F4152442500E4
:104540007079726F5F683700303132333435363707
:104550003839414243444546006D61696E006964E3
:104560006C65000010000240080002400008024094
:1045700000000B002800024008000240040802402E
:1045800006010C00400002400800024008080240FA
:1045900010020D0058000240080002400C080240C2
:1045A00016030E00700002400C000240100802408A
:1045B00000040F00880002400C0002401408024072
:1045C00006051000A00002400C000240180802403E
:1045D00010061100B80002400C0002401C08024006
:1045E00016072F0010040240080402402008024071
:1045F0000008380028040240080402402408024051
:10460000060939004004024008040240280802401C
:10461000100A3A0058040240080402402C080240E4
:10462000160B3B00700402400C04024030080240AC
:10463000000C3C00880402400C0402403408024094
:10464000060D4400A00402400C0402403808024059
:10465000100E4500B80402400C0402403C08024021
:10466000160F46000000000009160008F5150008A6
:10467000311600081D160008291600081516000836
:1046800001160008ED1500083D16000801000000A5
:104690000000000000000000174500084024002032
:1046A000502600204C43002001010200F5230008A1
:1046B00005230008A123000885230008030000004B
:1046C00000000000E11800080000000010000000D9
:1046D000B0260020000000000100000000000000E3
:1046E00002000000000000002D18000899180008C2
:1046F00040004000D0260020C0260020020000001C
:1047000000000000040309044300000010470008F3
:1047100009024300020100C0320904000001020244
:1047200001000524001001052401000104240202F7
:104730000524060001070582030800FF09040100A3
:10474000020A00000007050102400000070581027F
:1047500040000000120000005C4700081201100138
:10476000020000400912415700020102030100004B
:1047700000000020000002000200000000000030E5
:1047800000000400080000000000002400000800F1
:10479000040000000004000000FC00000200000013
:1047A0000000043000800000080000000000003815
:1047B00000000100010000000001000000100000E6
:1047C0000800000080000000400100000800000018
:1047D000000000003D1A0008F91C0008A51D000893
:1047E00040004000A0420020A04200200100000044
:1047F000984200200001806A00000000AAAAAAAA2C
:1048000000010064FFFF00000000000000A00A009B
:104810000040000100000000AAAAAAAA00000001AE
:104820007FFF00000000000000000000000000000A
:1048300000000000AAAAAAAA00000000FFFF0000D2
:104840000000000000000000000000000000000068
:10485000AAAAAAAA00000000FFFF000000000000B2
:10486000000000000000400000000000AAAAAAAA60
:1048700000004000FFFF00000000000000000000FA
:104880000000000000000000AAAAAAAA0000000080
:10489000FFFF00000000000000000000000000001A
:1048A00000000000AAAAAAAA00000000FFFF000062
:1048B00000000000000000000000000000000000F8
:1048C000AAAAAAAA00000000FFFF00000000000042
:1048D000000000000000000000000000AAAAAAAA30
:1048E00000000000FFFF00000000000000000000CA
:1048F0000000000000000000AAAAAAAA0000000010
:10490000FFFF0000000000000000000000000000A9
:1049100000000000AAAAAAAA00000000FFFF0000F1
:104920000000000000000000F5030000000000008F
:1049300000001A0000000000FF000000000000005E
:10494000EC44000883040000F74400085004000011
:104950000545000800960000000008000400000063
:1049600004470008000000000000000000000000F4
:1049700000000000000000000000000000960000A1
:04498000000008002B
:00000001FF
